{
  "contractName": "RockScissorsPaper",
  "abi": [
    {
      "constant": true,
      "inputs": [],
      "name": "totalGames",
      "outputs": [
        {
          "name": "",
          "type": "uint256"
        }
      ],
      "payable": false,
      "stateMutability": "view",
      "type": "function"
    },
    {
      "constant": true,
      "inputs": [
        {
          "name": "",
          "type": "address"
        }
      ],
      "name": "balancePlayer",
      "outputs": [
        {
          "name": "",
          "type": "uint256"
        }
      ],
      "payable": false,
      "stateMutability": "view",
      "type": "function"
    },
    {
      "constant": true,
      "inputs": [],
      "name": "owner",
      "outputs": [
        {
          "name": "",
          "type": "address"
        }
      ],
      "payable": false,
      "stateMutability": "view",
      "type": "function"
    },
    {
      "constant": true,
      "inputs": [],
      "name": "price",
      "outputs": [
        {
          "name": "",
          "type": "uint256"
        }
      ],
      "payable": false,
      "stateMutability": "view",
      "type": "function"
    },
    {
      "constant": true,
      "inputs": [],
      "name": "totalNumberOfGames",
      "outputs": [
        {
          "name": "",
          "type": "uint256"
        }
      ],
      "payable": false,
      "stateMutability": "view",
      "type": "function"
    },
    {
      "constant": false,
      "inputs": [
        {
          "name": "newOwner",
          "type": "address"
        }
      ],
      "name": "transferOwnership",
      "outputs": [],
      "payable": false,
      "stateMutability": "nonpayable",
      "type": "function"
    },
    {
      "inputs": [
        {
          "name": "_token",
          "type": "address"
        }
      ],
      "payable": false,
      "stateMutability": "nonpayable",
      "type": "constructor"
    },
    {
      "anonymous": false,
      "inputs": [
        {
          "indexed": true,
          "name": "previousOwner",
          "type": "address"
        },
        {
          "indexed": true,
          "name": "newOwner",
          "type": "address"
        }
      ],
      "name": "OwnershipTransferred",
      "type": "event"
    },
    {
      "constant": false,
      "inputs": [
        {
          "name": "bet",
          "type": "uint256"
        }
      ],
      "name": "makeDeposit",
      "outputs": [],
      "payable": false,
      "stateMutability": "nonpayable",
      "type": "function"
    },
    {
      "constant": false,
      "inputs": [
        {
          "name": "bet",
          "type": "uint256"
        }
      ],
      "name": "play",
      "outputs": [],
      "payable": false,
      "stateMutability": "nonpayable",
      "type": "function"
    },
    {
      "constant": false,
      "inputs": [],
      "name": "getReward",
      "outputs": [],
      "payable": false,
      "stateMutability": "nonpayable",
      "type": "function"
    },
    {
      "constant": false,
      "inputs": [],
      "name": "withdraw",
      "outputs": [],
      "payable": false,
      "stateMutability": "nonpayable",
      "type": "function"
    }
  ],
  "bytecode": "0x608060405260006001556000600355670de0b6b3a7640000600455600060055534801561002b57600080fd5b50604051602080610d8683398101806040528101908080519060200190929190505050336000806101000a81548173ffffffffffffffffffffffffffffffffffffffff021916908373ffffffffffffffffffffffffffffffffffffffff16021790555080600660006101000a81548173ffffffffffffffffffffffffffffffffffffffff021916908373ffffffffffffffffffffffffffffffffffffffff160217905550671bc16d674ec8000060048190555050610c98806100ee6000396000f3006080604052600436106100a4576000357c0100000000000000000000000000000000000000000000000000000000900463ffffffff168063059a500c146100a95780632c4e591b146100d65780633ccfd60b146101015780633d18b912146101185780636898f82b1461012f57806370b247fa1461015c5780638da5cb5b146101b3578063a035b1fe1461020a578063c092600014610235578063f2fde38b14610260575b600080fd5b3480156100b557600080fd5b506100d4600480360381019080803590602001909291905050506102a3565b005b3480156100e257600080fd5b506100eb610588565b6040518082815260200191505060405180910390f35b34801561010d57600080fd5b5061011661058e565b005b34801561012457600080fd5b5061012d6107c7565b005b34801561013b57600080fd5b5061015a6004803603810190808035906020019092919050505061097f565b005b34801561016857600080fd5b5061019d600480360381019080803573ffffffffffffffffffffffffffffffffffffffff169060200190929190505050610a65565b6040518082815260200191505060405180910390f35b3480156101bf57600080fd5b506101c8610a7d565b604051808273ffffffffffffffffffffffffffffffffffffffff1673ffffffffffffffffffffffffffffffffffffffff16815260200191505060405180910390f35b34801561021657600080fd5b5061021f610aa2565b6040518082815260200191505060405180910390f35b34801561024157600080fd5b5061024a610aa8565b6040518082815260200191505060405180910390f35b34801561026c57600080fd5b506102a1600480360381019080803573ffffffffffffffffffffffffffffffffffffffff169060200190929190505050610aae565b005b80600660009054906101000a900473ffffffffffffffffffffffffffffffffffffffff1673ffffffffffffffffffffffffffffffffffffffff1663dd62ed3e33306040518363ffffffff167c0100000000000000000000000000000000000000000000000000000000028152600401808373ffffffffffffffffffffffffffffffffffffffff1673ffffffffffffffffffffffffffffffffffffffff1681526020018273ffffffffffffffffffffffffffffffffffffffff1673ffffffffffffffffffffffffffffffffffffffff16815260200192505050602060405180830381600087803b15801561039557600080fd5b505af11580156103a9573d6000803e3d6000fd5b505050506040513d60208110156103bf57600080fd5b8101908080519060200190929190505050101515156103dd57600080fd5b600660009054906101000a900473ffffffffffffffffffffffffffffffffffffffff1673ffffffffffffffffffffffffffffffffffffffff166323b872dd3330846040518463ffffffff167c0100000000000000000000000000000000000000000000000000000000028152600401808473ffffffffffffffffffffffffffffffffffffffff1673ffffffffffffffffffffffffffffffffffffffff1681526020018373ffffffffffffffffffffffffffffffffffffffff1673ffffffffffffffffffffffffffffffffffffffff1681526020018281526020019350505050602060405180830381600087803b1580156104d657600080fd5b505af11580156104ea573d6000803e3d6000fd5b505050506040513d602081101561050057600080fd5b8101908080519060200190929190505050151561051c57600080fd5b61053181600554610c0390919063ffffffff16565b5061058481600260003373ffffffffffffffffffffffffffffffffffffffff1673ffffffffffffffffffffffffffffffffffffffff16815260200190815260200160002054610c0390919063ffffffff16565b5050565b60015481565b6000809054906101000a900473ffffffffffffffffffffffffffffffffffffffff1673ffffffffffffffffffffffffffffffffffffffff163373ffffffffffffffffffffffffffffffffffffffff161415156105e957600080fd5b600660009054906101000a900473ffffffffffffffffffffffffffffffffffffffff1673ffffffffffffffffffffffffffffffffffffffff1663a9059cbb33600660009054906101000a900473ffffffffffffffffffffffffffffffffffffffff1673ffffffffffffffffffffffffffffffffffffffff166370a08231306040518263ffffffff167c0100000000000000000000000000000000000000000000000000000000028152600401808273ffffffffffffffffffffffffffffffffffffffff1673ffffffffffffffffffffffffffffffffffffffff168152602001915050602060405180830381600087803b1580156106e557600080fd5b505af11580156106f9573d6000803e3d6000fd5b505050506040513d602081101561070f57600080fd5b81019080805190602001909291905050506040518363ffffffff167c0100000000000000000000000000000000000000000000000000000000028152600401808373ffffffffffffffffffffffffffffffffffffffff1673ffffffffffffffffffffffffffffffffffffffff16815260200182815260200192505050600060405180830381600087803b1580156107a557600080fd5b505af11580156107b9573d6000803e3d6000fd5b505050506000600581905550565b600660009054906101000a900473ffffffffffffffffffffffffffffffffffffffff1673ffffffffffffffffffffffffffffffffffffffff1663a9059cbb33600260003373ffffffffffffffffffffffffffffffffffffffff1673ffffffffffffffffffffffffffffffffffffffff168152602001908152602001600020546040518363ffffffff167c0100000000000000000000000000000000000000000000000000000000028152600401808373ffffffffffffffffffffffffffffffffffffffff1673ffffffffffffffffffffffffffffffffffffffff16815260200182815260200192505050600060405180830381600087803b1580156108cb57600080fd5b505af11580156108df573d6000803e3d6000fd5b50505050610937600260003373ffffffffffffffffffffffffffffffffffffffff1673ffffffffffffffffffffffffffffffffffffffff16815260200190815260200160002054600554610c2190919063ffffffff16565b506000600260003373ffffffffffffffffffffffffffffffffffffffff1673ffffffffffffffffffffffffffffffffffffffff16815260200190815260200160002081905550565b60006109976001600354610c0390919063ffffffff16565b506109a0610c3a565b90506000811415610a03576109fd82600260003373ffffffffffffffffffffffffffffffffffffffff1673ffffffffffffffffffffffffffffffffffffffff16815260200190815260200160002054610c0390919063ffffffff16565b50610a61565b6001811415610a6057610a5e82600260003373ffffffffffffffffffffffffffffffffffffffff1673ffffffffffffffffffffffffffffffffffffffff16815260200190815260200160002054610c2190919063ffffffff16565b505b5b5050565b60026020528060005260406000206000915090505481565b6000809054906101000a900473ffffffffffffffffffffffffffffffffffffffff1681565b60045481565b60035481565b6000809054906101000a900473ffffffffffffffffffffffffffffffffffffffff1673ffffffffffffffffffffffffffffffffffffffff163373ffffffffffffffffffffffffffffffffffffffff16141515610b0957600080fd5b600073ffffffffffffffffffffffffffffffffffffffff168173ffffffffffffffffffffffffffffffffffffffff1614151515610b4557600080fd5b8073ffffffffffffffffffffffffffffffffffffffff166000809054906101000a900473ffffffffffffffffffffffffffffffffffffffff1673ffffffffffffffffffffffffffffffffffffffff167f8be0079c531659141344cd1fd0a4f28419497f9722a3daafe3b4186f6b6457e060405160405180910390a3806000806101000a81548173ffffffffffffffffffffffffffffffffffffffff021916908373ffffffffffffffffffffffffffffffffffffffff16021790555050565b6000808284019050838110151515610c1757fe5b8091505092915050565b6000828211151515610c2f57fe5b818303905092915050565b60008043604051808281526020019150506040518091039020600190049050600381811515610c6557fe5b06915050905600a165627a7a72305820d64986698474dbfa9a78e31596505d82aabf6c3f2ffb65d59e436f593ad5692f0029",
  "source": "pragma solidity ^0.4.22;\n\nimport \"./Ownable.sol\";\nimport \"./interfaces.sol\";\nimport \"./SafeMath.sol\";\n\ncontract RockScissorsPaper is Ownable {\n\tusing SafeMath for uint256;\n\n    uint public totalGames = 0;\n    mapping (address => uint) public balancePlayer;\n    uint256 public totalNumberOfGames = 0;\n    uint256 public price = 1 ether;\n    uint256 bank = 0;\n    ERC20Interface betToken;\n\n    constructor(address _token) public {\n        betToken = ERC20Interface(_token);\n        price = 2 ether;\n    }\n\n    function makeDeposit(uint bet) public {\n    \trequire(betToken.allowance(msg.sender, this) >= bet);\n        require(betToken.transferFrom(msg.sender, this, bet));\n        bank.add(bet);\n        balancePlayer[msg.sender].add(bet);\n    }\n\n    function play(uint bet) public {\n    \ttotalNumberOfGames.add(1);\n        uint num = _generateRandom();\n        if(num == 0)\n        \tbalancePlayer[msg.sender].add(bet);\n        else if(num == 1)\n        \tbalancePlayer[msg.sender].sub(bet);\n    }\n\n    function _generateRandom() private view returns (uint) {\n        uint rand = uint(keccak256(block.number));\n        return rand % 3;\n    }\n\n    function getReward() public {\n    \tbetToken.transfer(msg.sender, balancePlayer[msg.sender]);\n        bank.sub(balancePlayer[msg.sender]);\n        balancePlayer[msg.sender] = 0;\n    }\n\n    function withdraw() public onlyOwner {\n        betToken.transfer(msg.sender, betToken.balanceOf(this));\n        bank = 0;\n    }\n\n}",
  "sourcePath": "/home/sirvadim/RSPgame/Rock-Scissors-Paper/contracts/contract.sol",
  "compiler": {
    "name": "solc",
    "version": "0.4.23+commit.124ca40d.Emscripten.clang"
  },
  "schemaVersion": "2.0.0",
  "updatedAt": "2018-05-17T22:06:55.633Z"
}